:100000000C9462000C948A000C948A000C948A0070
:100010000C948A000C948A000C948A000C948A0038
:100020000C948A000C948A000C948A000C948A0028
:100030000C948A000C948A000C948A000C948A0018
:100040000C9460040C948A000C948A000C948A002E
:100050000C948A000C948A000C948A000C948A00F8
:100060000C948A000C948A000000000024002700F1
:100070002A0000000000250028002B0000000000DE
:1000800023002600290004040404040404040202DA
:100090000202020203030303030301020408102007
:1000A0004080010204081020010204081020000012
:1000B0000008000201000003040700000000000027
:1000C00000009A0711241FBECFEFD8E0DEBFCDBFDE
:1000D00011E0A0E0B1E0E6E5F3E102C005900D9289
:1000E000AA31B107D9F721E0AAE1B1E001C01D9220
:1000F000AF34B207E1F710E0C2E6D0E004C02197C8
:10010000FE010E949409C136D107C9F70E94AA04D2
:100110000C94A9090C940000833081F028F48130FC
:1001200099F08230A9F008958730A9F08830C9F09D
:100130008430B1F4809180008F7D03C08091800075
:100140008F7780938000089584B58F7784BD08955C
:1001500084B58F7DFBCF8091B0008F778093B00006
:1001600008958091B0008F7DF9CFCF93DF93282F32
:1001700030E0F901E255FF4F8491F901E656FF4F57
:10018000D491F901EA57FF4FC491CC23A1F081111A
:100190000E948C00EC2FF0E0EE0FFF1FE458FF4FA1
:1001A000A591B491EC91ED2381E090E009F480E019
:1001B000DF91CF91089580E090E0FACF8F929F92E7
:1001C000AF92BF92CF92DF92EF92FF920F931F9365
:1001D000CF93DF938FB7F894C0903401D09035015E
:1001E000E0903601F09037018FBF8091390184FF94
:1001F00074C080903E0190903F01A0904001B0906B
:10020000410190914A019111F6C0809148010E94EC
:10021000B50020913A01022F017010E021E008178B
:10022000190709F420E020934B01B701A6014819F2
:1002300059096A097B0920914B019091380191FB82
:10024000882780F9222309F419C181111AC0413588
:10025000510561057105A8F0C0923E01D0923F01A1
:10026000E0924001F0924101997E926190689093F2
:10027000380180913A01806280933A0140E050E079
:10028000BA0180913A019091380184FF12C04D3239
:1002900031E053076105710560F092FD05C083FDF3
:1002A000B4C0826080933A0180913A018F7E80933E
:1002B0003A0191FF12C04D3B52406105710568F053
:1002C00092FD0BC0222309F4A2C0916090933801E3
:1002D00080913A018F7D80933A0180914A01882371
:1002E00009F4A2C09091390196FB332730F9C32F4E
:1002F00080E0D82FCC0FDD1F95FB882780F98C2B51
:1003000020913C01281709F469C010923D01909199
:100310003A0196FFB0C0833009F097C09F7B90935D
:100320003A01213009F48DC091E0223009F48AC0ED
:100330009091390193FD03C0833009F493C09091EB
:100340003D019923E1F12091380128602093380183
:1003500040914201509143016091440170914501E7
:1003600097018601041B150B260B370B40913B01AF
:1003700050E070E060E0041715072607370760F4C7
:10038000209139012260913029F0923029F4209196
:100390003901216020933901C0924201D09243017A
:1003A000E0924401F09245012091390124FF07C0F9
:1003B00020914B01222319F09E5F90933D01809381
:1003C0003C0180913801846080933801C0923E01E5
:1003D000D0923F01E0924001F0924101DF91CF9134
:1003E0001F910F91FF90EF90DF90CF90BF90AF9053
:1003F0009F908F90089587FB882780F980934B0109
:1004000014CF80913A01886037CF84604BCF9D7FB5
:100410009E7F90933801C0923E01D0923F01E092BE
:100420004001F092410159CF809146010E94B500F0
:10043000C82F809147010E94B500880F991F8C2B0F
:100440005FCF92E090933D0173CF3091390133FD3E
:1004500046C0811174CF9F7B90933A01213041F0C7
:10046000223031F090913A01906490933A0167CF35
:1004700020933D01F7CF8823A9F35ACF882309F4AD
:1004800000CF413551056105710508F4FACE92FDA2
:1004900005C090FD03C09062909338014D3B5240DF
:1004A0006105710528F080913801806480933801DE
:1004B00080913801C0923E01D0923F01E09240010C
:1004C000F09241018D7F8E7F8093380180913A01B7
:1004D00085FF97CF84FD95CF8061877FCDCE882320
:1004E00009F26DCF1F93CF93DF93282F30E0F901EE
:1004F000E255FF4F8491F901E656FF4FD491F9017F
:10050000EA57FF4FC491CC23A9F0162F81110E9406
:100510008C00EC2FF0E0EE0FFF1FEE58FF4FA5917F
:10052000B4918FB7F894EC91111108C0D095DE23E7
:10053000DC938FBFDF91CF911F910895DE2BF8CF11
:10054000CF93DF9390E0FC01E656FF4F24918A574A
:100550009F4FFC0184918823C9F090E0880F991F78
:10056000FC01E859FF4FA591B491FC01EE58FF4FF3
:10057000C591D49161110DC09FB7F8948C912095CD
:1005800082238C938881282328839FBFDF91CF917A
:100590000895623051F49FB7F8943C91822F809572
:1005A00083238C93E8812E2BEFCF8FB7F894EC91B7
:1005B0002E2B2C938FBFEACF0F931F93CF93DF93F4
:1005C0000CE411E061E0F80181810E94A002C3EC1B
:1005D000D0E0CE010197F1F760E0F80180810E9440
:1005E000A002CE010197F1F760E0F80181810E943D
:1005F000A0022197F1F7DF91CF911F910F910895FC
:10060000EF92FF920F931F93CF93DF93082F18E081
:10061000C3ECD0E061E080914C010E94A002CE01C9
:100620000197F1F7E02EF12C60E000FF61E080918E
:100630004D010E94A002CE010197F1F760E0809188
:100640004C010E94A002CE010197F1F7F594E794C6
:100650000E2D1150F9F661E080914C010E94A0022C
:1006600060E080914D010E94A002CE010197F1F758
:1006700060E080914C010E94A0022197F1F78091E7
:100680004D010E94B500182F811105C061E08091D5
:100690004D010E94A002C3ECD0E0CE010197F1F71A
:1006A00061E080914C010E94A0022197F1F781E066
:1006B000111101C080E0DF91CF911F910F91FF9048
:1006C000EF90089561E080914D010E94A00283ECBB
:1006D00090E00197F1F708950F931F93CF93DF9365
:1006E0008C010E94620380E40E9400030E94DC02ED
:1006F0000E94620380EC0E940003E8010C5F1F4F20
:1007000089910E940003C017D107D1F70E94DC0233
:100710000E94620380914E018F7080580E940003F6
:10072000DF91CF911F910F910C94DC02CF93DF9357
:1007300000D000D0CDB7DEB789836A834B832C838A
:10074000CE0101960E946C030F900F900F900F90B6
:10075000DF91CF910895CF93DF9300D000D0CDB734
:10076000DEB7E82F392F68EE73E00E943809F62FC4
:100770008E2F932F60E177E20E94380926EFAF2F8A
:10078000269FA00D1124AF70B0E0A65FBE4F8C91E4
:1007900089838E2F932F64E670E00E943809462FDC
:1007A000A62F2F9FA00D1124AF70B0E0A65FBE4F03
:1007B0008C918A838E2F932F6AE070E00E94380913
:1007C000A62F249FA00D1124AF70B0E0A65FBE4FEE
:1007D0008C918B83269FE00D1124EF70F0E0E65F93
:1007E000FE4F80818C83CE0101960E946C030F9096
:1007F0000F900F900F90DF91CF910895809121017C
:1008000090911C0191112FC0811113C0809127017B
:1008100090912801A0912901B0912A01892B8A2B5E
:100820008B2B09F04CC028E741E368E78DE60C9478
:100830009603813029F420E040E063E781E3F7CFBD
:1008400020E040E066E0823061F020E040E060E0DF
:10085000833039F0843099F52FE541E36CE18EE582
:10086000E6CF88E7E4CF813031F4809100019091A8
:1008700001010C94AB03823029F480910401909122
:100880000501F7CF833029F4809102019091030193
:10089000F0CF8430A1F4609106017091070180913E
:1008A0000801909109010E943D082FE632E143E8DA
:1008B0005AE30E94A3080E940E08CB01DACF0895E4
:1008C0001F920F920FB60F9211242F933F938F9385
:1008D0009F93AF93BF938091340190913501A09184
:1008E0003601B09137013091330123E0230F2D37CA
:1008F00058F50196A11DB11D209333018093340159
:1009000090933501A0933601B093370180912F0168
:1009100090913001A0913101B09132010196A11D59
:10092000B11D80932F0190933001A0933101B093BA
:100930003201BF91AF919F918F913F912F910F9075
:100940000FBE0F901F90189526E8230F0296A11D49
:10095000B11DD2CFCF93DF931F92CDB7DEB778947E
:1009600084B5826084BD84B5816084BD85B58260B4
:1009700085BD85B5816085BD80916E008160809365
:100980006E001092810080918100826080938100CE
:1009900080918100816080938100809180008160DE
:1009A000809380008091B10084608093B100809139
:1009B000B00081608093B00080917A008460809361
:1009C0007A0080917A00826080937A0080917A0028
:1009D000816080937A0080917A00806880937A00A9
:1009E0001092C10061E082E00E94A00261E08DE00F
:1009F0000E94A00262E082E10E94A00261E083E125
:100A00000E94A00261E080E10E94A00261E080E11A
:100A10000E94720261E081E10E94A00260E081E137
:100A20000E94720261E086E00E94A00261E086E01E
:100A30000E94720261E085E00E94A00260E085E011
:100A40000E9472028FE080934E0180913901877F6E
:100A5000809339012091000130910101032E000C97
:100A6000440B550B60E879EA83E090E00E944C0962
:100A700030930301209302010E94FE0390E8892E27
:100A800099EA992E93E0A92EB12C22242394312C9B
:100A900006EF1FEF8FB7F894C0903401D090350166
:100AA000E0903601F09037018FBFC0922B01D092B9
:100AB0002C01E0922D01F0922E018091270190915E
:100AC0002801A0912901B0912A010097A105B10543
:100AD000D9F0409106015091070160910801709191
:100AE0000901840F951FA61FB71F8C159D05AE0524
:100AF000BF0550F41092270110922801109229018D
:100B000010922A011092260180912601882309F46F
:100B100004C1409022015090230160902401709004
:100B200025018091040190910501092E000CAA0B6A
:100B3000BB0B840D951DA61DB71D8C159D05AE051F
:100B4000BF0540F460E082E00E94720260E08DE048
:100B50000E9472028091020190910301092E000C03
:100B6000AA0BBB0B840D951DA61DB71D8C159D05ED
:100B7000AE05BF0580F461E082E00E94720261E090
:100B80008DE00E947202C0922201D0922301E09275
:100B90002401F09225010E94DE004090210149824B
:100BA000411051C08091270190912801A091290105
:100BB000B0912A010097A105B10509F444C0C09085
:100BC0002B01D0902C01E0902D01F0902E0140914E
:100BD0001D0150911E0160911F017091200126019D
:100BE0003701441A550A660A770AB301A201483E42
:100BF00053406105710538F140910601509107019C
:100C00006091080170910901840F951FA61FB71FFD
:100C1000BC01CD016C197D098E099F090E943D0818
:100C20002FE632E143E85AE30E94A3080E94070836
:100C3000CB010E94AB03C0921D01D0921E01E09235
:100C40001F01F09220018091390182FD0E94DE0097
:100C50008091380185FF2AC090911C018F7D80937F
:100C600038014980411078C0809127019091280176
:100C7000A0912901B0912A01892B8A2B8B2B09F095
:100C800060C080912B0190912C01A0912D01B09119
:100C90002E018093270190932801A0932901B093FE
:100CA0002A0181E0809326010E94FE038091390190
:100CB00082FB882780F990911C01911152C081110B
:100CC0000E94DE0080913D01813059F410923D0177
:100CD00080912101882319F08150809321010E9485
:100CE000FE038091390182FD0E94DE0080913D016A
:100CF000823059F410923D0180912101843018F422
:100D00008F5F809321010E94FE0380E090E0892B99
:100D100009F4C0CE0E940000BDCE82E10E94B50061
:100D2000892B49F461E082E00E94720261E08DE06B
:100D30000E94720230CF60E082E00E94720260E0A6
:100D4000F6CF1092270110922801109229011092DB
:100D50002A0110922601A8CF81E0892780931C01E7
:100D6000A3CF10921B0110921A0181110E94DE0084
:100D700080913D01813049F410923D0166246A94CE
:100D8000762C70921B0160921A018091390182FDCC
:100D90000E94DE008091390181FF07C08D7F809322
:100DA000390110931B0100931A018091390182FDD2
:100DB0000E94DE0080913D01823031F410923D01AD
:100DC00030921B0120921A018091390182FD0E940C
:100DD000DE008091390180FF09C08E7F8093390148
:100DE0008AE090E090931B0180931A01A0911A0170
:100DF000B0911B01109709F488CF809121018130B7
:100E000011F520910001309101012A0F3B1FB7FF1E
:100E100015C0121613060CF076CF30930101209303
:100E20000001032E000C440B550BC501B4010E94B8
:100E30004C09309303012093020165CF21329EE4D7
:100E400039075CF360CF8230C9F48091040190913E
:100E500005018A0F9B1FB7FF09C0181619060CF071
:100E600052CF90930501809304014DCF2091020150
:100E70003091030128173907A4F745CF833069F56E
:100E80002091020130910301B7FF0BC04091040192
:100E900050910501C9018A1B9B0B841795070CF41F
:100EA00032CF2A0F3B1F3093030120930201032E00
:100EB000000C440B550BC501B4010E944C09309342
:100EC0000101209300011FCF21E8C2162EEED206A9
:100ED00026E3E206F104E8F016CF843009F013CFE0
:100EE000409106015091070160910801709109013C
:100EF0006D010B2E000CEE08FF08C40ED51EE61E79
:100F0000F71EB7FFE1CFC114D104E104F10409F4E5
:100F1000FACE27EE33E00E946B09C60ED71EE81EFC
:100F2000F91EC0920601D0920701E0920801F092EA
:100F30000901E9CECF938EE080934C018FE080933E
:100F40004D0160E08EE00E94A00260E080914D01C2
:100F50000E94A00260E080914C010E94720260E059
:100F600080914D010E94720282E380933B011092B6
:100F70003C0110923D0110923E0110923F011092EF
:100F800040011092410110924201109243011092CF
:100F90004401109245011092490110924A011092A9
:100FA0004B0189E08093460188E08093470187E008
:100FB00080934801809139018061877F8093390156
:100FC00062E089E00E94A00262E0809147010E94F5
:100FD000A0028091390184FF05C062E08091480140
:100FE0000E94A00280913A01816080933A01809131
:100FF00046010E94B500C82F809147010E94B500AC
:10100000880F991F8C2B80933C01CF9108950E94EB
:101010000E086894B1110C949D0808950E948208EE
:1010200088F09F5798F0B92F9927B751B0F0E1F0A9
:10103000660F771F881F991F1AF0BA95C9F714C059
:10104000B13091F00E949C08B1E008950C949C0886
:10105000672F782F8827B85F39F0B93FCCF3869592
:1010600077956795B395D9F73EF4909580957095EF
:1010700061957F4F8F4F9F4F0895E89409C097FB6C
:101080003EF490958095709561957F4F8F4F9F4F5F
:101090009923A9F0F92F96E9BB279395F6958795A3
:1010A00077956795B795F111F8CFFAF4BB0F11F466
:1010B00060FF1BC06F5F7F4F8F4F9F4F16C088230D
:1010C00011F096E911C0772321F09EE8872F762F43
:1010D00005C0662371F096E8862F70E060E02AF084
:1010E0009A95660F771F881FDAF7880F9695879570
:1010F00097F9089557FD9058440F551F59F05F3FD9
:1011000071F04795880F97FB991F61F09F3F79F029
:1011100087950895121613061406551FF2CF4695AB
:10112000F1DF08C0161617061806991FF1CF86952D
:101130007105610508940895E894BB276627772711
:10114000CB0197F908950E94B6080C9427090E94D4
:10115000190938F00E94200920F0952311F00C9411
:1011600010090C94160911240C949D080E947A0809
:1011700070F3959FC1F3950F50E0551F629FF001EA
:10118000729FBB27F00DB11D639FAA27F00DB11D03
:10119000AA1F649F6627B00DA11D661F829F22278C
:1011A000B00DA11D621F739FB00DA11D621F839F13
:1011B000A00D611D221F749F3327A00D611D231FE9
:1011C000849F600D211D822F762F6A2F11249F5737
:1011D00050409AF0F1F088234AF0EE0FFF1FBB1F3A
:1011E000661F771F881F91505040A9F79E3F5105F9
:1011F00080F00C9410090C949D085F3FE4F3983E36
:10120000D4F3869577956795B795F795E7959F5FA2
:10121000C1F7FE2B880F911D9695879597F9089534
:1012200097F99F6780E870E060E008959FEF80EC99
:10123000089500240A94161617061806090608953C
:1012400000240A9412161306140605060895092EA2
:101250000394000C11F4882352F0BB0F40F4BF2B11
:1012600011F460FF04C06F5F7F4F8F4F9F4F089551
:10127000AA1BBB1B51E107C0AA1FBB1FA617B707BC
:1012800010F0A61BB70B881F991F5A95A9F78095D8
:101290009095BC01CD010895052E97FB1EF4009496
:1012A0000E94630957FD07D00E94720907FC03D012
:1012B0004EF40C94630950954095309521953F4F1D
:1012C0004F4F5F4F089590958095709561957F4F32
:1012D0008F4F9F4F08950E949A09B7FF0895821B70
:1012E000930B0895A1E21A2EAA1BBB1BFD010DC092
:1012F000AA1FBB1FEE1FFF1FA217B307E407F507C6
:1013000020F0A21BB30BE40BF50B661F771F881FA1
:10131000991F1A9469F760957095809590959B0137
:10132000AC01BD01CF010895EE0FFF1F0590F491B0
:10133000E02D0994A29FB001B39FC001A39F700D3F
:10134000811D1124911DB29F700D811D1124911DCD
:061350000895F894FFCFA0
:10135600580264000A0060EA00003F065B4F666DB3
:0A1366007D077F6F777C395E797197
:00000001FF
